{
	"contractName": "RocketToken",
	"abi": [
		{
			"inputs": [],
			"stateMutability": "nonpayable",
			"type": "constructor"
		},
		{
			"anonymous": false,
			"inputs": [
				{
					"indexed": true,
					"internalType": "address",
					"name": "owner",
					"type": "address"
				},
				{
					"indexed": true,
					"internalType": "address",
					"name": "spender",
					"type": "address"
				},
				{
					"indexed": false,
					"internalType": "uint256",
					"name": "value",
					"type": "uint256"
				}
			],
			"name": "Approval",
			"type": "event"
		},
		{
			"anonymous": false,
			"inputs": [
				{
					"indexed": true,
					"internalType": "address",
					"name": "previousOwner",
					"type": "address"
				},
				{
					"indexed": true,
					"internalType": "address",
					"name": "newOwner",
					"type": "address"
				}
			],
			"name": "OwnershipTransferred",
			"type": "event"
		},
		{
			"anonymous": false,
			"inputs": [
				{
					"indexed": false,
					"internalType": "address",
					"name": "account",
					"type": "address"
				}
			],
			"name": "Paused",
			"type": "event"
		},
		{
			"anonymous": false,
			"inputs": [
				{
					"indexed": true,
					"internalType": "address",
					"name": "from",
					"type": "address"
				},
				{
					"indexed": true,
					"internalType": "address",
					"name": "to",
					"type": "address"
				},
				{
					"indexed": false,
					"internalType": "uint256",
					"name": "value",
					"type": "uint256"
				}
			],
			"name": "Transfer",
			"type": "event"
		},
		{
			"anonymous": false,
			"inputs": [
				{
					"indexed": false,
					"internalType": "address",
					"name": "account",
					"type": "address"
				}
			],
			"name": "Unpaused",
			"type": "event"
		},
		{
			"inputs": [],
			"name": "DOMAIN_SEPARATOR",
			"outputs": [
				{
					"internalType": "bytes32",
					"name": "",
					"type": "bytes32"
				}
			],
			"stateMutability": "view",
			"type": "function",
			"constant": true
		},
		{
			"inputs": [
				{
					"internalType": "address",
					"name": "owner",
					"type": "address"
				},
				{
					"internalType": "address",
					"name": "spender",
					"type": "address"
				}
			],
			"name": "allowance",
			"outputs": [
				{
					"internalType": "uint256",
					"name": "",
					"type": "uint256"
				}
			],
			"stateMutability": "view",
			"type": "function",
			"constant": true
		},
		{
			"inputs": [
				{
					"internalType": "address",
					"name": "spender",
					"type": "address"
				},
				{
					"internalType": "uint256",
					"name": "amount",
					"type": "uint256"
				}
			],
			"name": "approve",
			"outputs": [
				{
					"internalType": "bool",
					"name": "",
					"type": "bool"
				}
			],
			"stateMutability": "nonpayable",
			"type": "function"
		},
		{
			"inputs": [
				{
					"internalType": "address",
					"name": "account",
					"type": "address"
				}
			],
			"name": "balanceOf",
			"outputs": [
				{
					"internalType": "uint256",
					"name": "",
					"type": "uint256"
				}
			],
			"stateMutability": "view",
			"type": "function",
			"constant": true
		},
		{
			"inputs": [
				{
					"internalType": "address",
					"name": "spender",
					"type": "address"
				},
				{
					"internalType": "uint256",
					"name": "subtractedValue",
					"type": "uint256"
				}
			],
			"name": "decreaseAllowance",
			"outputs": [
				{
					"internalType": "bool",
					"name": "",
					"type": "bool"
				}
			],
			"stateMutability": "nonpayable",
			"type": "function"
		},
		{
			"inputs": [
				{
					"internalType": "address",
					"name": "spender",
					"type": "address"
				},
				{
					"internalType": "uint256",
					"name": "addedValue",
					"type": "uint256"
				}
			],
			"name": "increaseAllowance",
			"outputs": [
				{
					"internalType": "bool",
					"name": "",
					"type": "bool"
				}
			],
			"stateMutability": "nonpayable",
			"type": "function"
		},
		{
			"inputs": [
				{
					"internalType": "address",
					"name": "",
					"type": "address"
				}
			],
			"name": "lastFaucetRequest",
			"outputs": [
				{
					"internalType": "uint256",
					"name": "",
					"type": "uint256"
				}
			],
			"stateMutability": "view",
			"type": "function",
			"constant": true
		},
		{
			"inputs": [],
			"name": "name",
			"outputs": [
				{
					"internalType": "string",
					"name": "",
					"type": "string"
				}
			],
			"stateMutability": "view",
			"type": "function",
			"constant": true
		},
		{
			"inputs": [
				{
					"internalType": "address",
					"name": "owner",
					"type": "address"
				}
			],
			"name": "nonces",
			"outputs": [
				{
					"internalType": "uint256",
					"name": "",
					"type": "uint256"
				}
			],
			"stateMutability": "view",
			"type": "function",
			"constant": true
		},
		{
			"inputs": [],
			"name": "owner",
			"outputs": [
				{
					"internalType": "address",
					"name": "",
					"type": "address"
				}
			],
			"stateMutability": "view",
			"type": "function",
			"constant": true
		},
		{
			"inputs": [],
			"name": "paused",
			"outputs": [
				{
					"internalType": "bool",
					"name": "",
					"type": "bool"
				}
			],
			"stateMutability": "view",
			"type": "function",
			"constant": true
		},
		{
			"inputs": [
				{
					"internalType": "address",
					"name": "owner",
					"type": "address"
				},
				{
					"internalType": "address",
					"name": "spender",
					"type": "address"
				},
				{
					"internalType": "uint256",
					"name": "value",
					"type": "uint256"
				},
				{
					"internalType": "uint256",
					"name": "deadline",
					"type": "uint256"
				},
				{
					"internalType": "uint8",
					"name": "v",
					"type": "uint8"
				},
				{
					"internalType": "bytes32",
					"name": "r",
					"type": "bytes32"
				},
				{
					"internalType": "bytes32",
					"name": "s",
					"type": "bytes32"
				}
			],
			"name": "permit",
			"outputs": [],
			"stateMutability": "nonpayable",
			"type": "function"
		},
		{
			"inputs": [],
			"name": "renounceOwnership",
			"outputs": [],
			"stateMutability": "nonpayable",
			"type": "function"
		},
		{
			"inputs": [],
			"name": "symbol",
			"outputs": [
				{
					"internalType": "string",
					"name": "",
					"type": "string"
				}
			],
			"stateMutability": "view",
			"type": "function",
			"constant": true
		},
		{
			"inputs": [],
			"name": "totalSupply",
			"outputs": [
				{
					"internalType": "uint256",
					"name": "",
					"type": "uint256"
				}
			],
			"stateMutability": "view",
			"type": "function",
			"constant": true
		},
		{
			"inputs": [
				{
					"internalType": "address",
					"name": "to",
					"type": "address"
				},
				{
					"internalType": "uint256",
					"name": "amount",
					"type": "uint256"
				}
			],
			"name": "transfer",
			"outputs": [
				{
					"internalType": "bool",
					"name": "",
					"type": "bool"
				}
			],
			"stateMutability": "nonpayable",
			"type": "function"
		},
		{
			"inputs": [
				{
					"internalType": "address",
					"name": "from",
					"type": "address"
				},
				{
					"internalType": "address",
					"name": "to",
					"type": "address"
				},
				{
					"internalType": "uint256",
					"name": "amount",
					"type": "uint256"
				}
			],
			"name": "transferFrom",
			"outputs": [
				{
					"internalType": "bool",
					"name": "",
					"type": "bool"
				}
			],
			"stateMutability": "nonpayable",
			"type": "function"
		},
		{
			"inputs": [
				{
					"internalType": "address",
					"name": "newOwner",
					"type": "address"
				}
			],
			"name": "transferOwnership",
			"outputs": [],
			"stateMutability": "nonpayable",
			"type": "function"
		},
		{
			"inputs": [],
			"name": "pause",
			"outputs": [],
			"stateMutability": "nonpayable",
			"type": "function"
		},
		{
			"inputs": [],
			"name": "unpause",
			"outputs": [],
			"stateMutability": "nonpayable",
			"type": "function"
		},
		{
			"inputs": [
				{
					"internalType": "address",
					"name": "to",
					"type": "address"
				},
				{
					"internalType": "uint256",
					"name": "amount",
					"type": "uint256"
				}
			],
			"name": "mint",
			"outputs": [],
			"stateMutability": "nonpayable",
			"type": "function"
		},
		{
			"inputs": [
				{
					"internalType": "address",
					"name": "requester",
					"type": "address"
				}
			],
			"name": "faucet",
			"outputs": [],
			"stateMutability": "nonpayable",
			"type": "function"
		},
		{
			"inputs": [],
			"name": "decimals",
			"outputs": [
				{
					"internalType": "uint8",
					"name": "",
					"type": "uint8"
				}
			],
			"stateMutability": "view",
			"type": "function",
			"constant": true
		}
	],
	"bytecode": "0x6101406040523480156200001257600080fd5b506040518060400160405280600b81526020017f526f636b6574546f6b656e000000000000000000000000000000000000000000815250806040518060400160405280600181526020017f31000000000000000000000000000000000000000000000000000000000000008152506040518060400160405280600b81526020017f526f636b6574546f6b656e0000000000000000000000000000000000000000008152506040518060400160405280600681526020017f524f434b4554000000000000000000000000000000000000000000000000000081525081600390805190602001906200010492919062000552565b5080600490805190602001906200011d92919062000552565b5050506000600560006101000a81548160ff0219169083151502179055506200015b6200014f6200023e60201b60201c565b6200024660201b60201c565b60008280519060200120905060008280519060200120905060007f8b73c3c69bb8fe3d512ecc4cf759cc79239f7b179b0ffacaa9a75d522b39400f90508260e081815250508161010081815250504660a08181525050620001c48184846200030c60201b60201c565b608081815250503073ffffffffffffffffffffffffffffffffffffffff1660c08173ffffffffffffffffffffffffffffffffffffffff168152505080610120818152505050505050505062000222336103e86200034860201b60201c565b6200023830633b9aca006200034860201b60201c565b620008dd565b600033905090565b6000600560019054906101000a900473ffffffffffffffffffffffffffffffffffffffff16905081600560016101000a81548173ffffffffffffffffffffffffffffffffffffffff021916908373ffffffffffffffffffffffffffffffffffffffff1602179055508173ffffffffffffffffffffffffffffffffffffffff168173ffffffffffffffffffffffffffffffffffffffff167f8be0079c531659141344cd1fd0a4f28419497f9722a3daafe3b4186f6b6457e060405160405180910390a35050565b60008383834630604051602001620003299594939291906200067d565b6040516020818303038152906040528051906020012090509392505050565b600073ffffffffffffffffffffffffffffffffffffffff168273ffffffffffffffffffffffffffffffffffffffff161415620003bb576040517f08c379a0000000000000000000000000000000000000000000000000000000008152600401620003b2906200073b565b60405180910390fd5b620003cf60008383620004c160201b60201c565b8060026000828254620003e391906200078c565b92505081905550806000808473ffffffffffffffffffffffffffffffffffffffff1673ffffffffffffffffffffffffffffffffffffffff16815260200190815260200160002060008282546200043a91906200078c565b925050819055508173ffffffffffffffffffffffffffffffffffffffff16600073ffffffffffffffffffffffffffffffffffffffff167fddf252ad1be2c89b69c2b068fc378daa952ba7f163c4a11628f55a4df523b3ef83604051620004a19190620007e9565b60405180910390a3620004bd600083836200053160201b60201c565b5050565b620004d16200053660201b60201c565b1562000514576040517f08c379a00000000000000000000000000000000000000000000000000000000081526004016200050b9062000856565b60405180910390fd5b6200052c8383836200054d60201b62000d7a1760201c565b505050565b505050565b6000600560009054906101000a900460ff16905090565b505050565b8280546200056090620008a7565b90600052602060002090601f016020900481019282620005845760008555620005d0565b82601f106200059f57805160ff1916838001178555620005d0565b82800160010185558215620005d0579182015b82811115620005cf578251825591602001919060010190620005b2565b5b509050620005df9190620005e3565b5090565b5b80821115620005fe576000816000905550600101620005e4565b5090565b6000819050919050565b620006178162000602565b82525050565b6000819050919050565b62000632816200061d565b82525050565b600073ffffffffffffffffffffffffffffffffffffffff82169050919050565b6000620006658262000638565b9050919050565b620006778162000658565b82525050565b600060a0820190506200069460008301886200060c565b620006a360208301876200060c565b620006b260408301866200060c565b620006c1606083018562000627565b620006d060808301846200066c565b9695505050505050565b600082825260208201905092915050565b7f45524332303a206d696e7420746f20746865207a65726f206164647265737300600082015250565b600062000723601f83620006da565b91506200073082620006eb565b602082019050919050565b60006020820190508181036000830152620007568162000714565b9050919050565b7f4e487b7100000000000000000000000000000000000000000000000000000000600052601160045260246000fd5b600062000799826200061d565b9150620007a6836200061d565b9250827fffffffffffffffffffffffffffffffffffffffffffffffffffffffffffffffff03821115620007de57620007dd6200075d565b5b828201905092915050565b600060208201905062000800600083018462000627565b92915050565b7f5061757361626c653a2070617573656400000000000000000000000000000000600082015250565b60006200083e601083620006da565b91506200084b8262000806565b602082019050919050565b6000602082019050818103600083015262000871816200082f565b9050919050565b7f4e487b7100000000000000000000000000000000000000000000000000000000600052602260045260246000fd5b60006002820490506001821680620008c057607f821691505b60208210811415620008d757620008d662000878565b5b50919050565b60805160a05160c05160e0516101005161012051612c0d6200092d600039600061130d0152600061134f0152600061132e01526000611263015260006112b9015260006112e20152612c0d6000f3fe608060405234801561001057600080fd5b506004361061014d5760003560e01c8063715018a6116100c3578063a9059cbb1161007c578063a9059cbb1461037e578063b86d1d63146103ae578063d505accf146103ca578063d5ace7ba146103e6578063dd62ed3e14610416578063f2fde38b146104465761014d565b8063715018a6146102ce5780637ecebe00146102d85780638456cb59146103085780638da5cb5b1461031257806395d89b4114610330578063a457c2d71461034e5761014d565b80633644e515116101155780633644e5151461020c578063395093511461022a5780633f4ba83a1461025a57806340c10f19146102645780635c975abb1461028057806370a082311461029e5761014d565b806306fdde0314610152578063095ea7b31461017057806318160ddd146101a057806323b872dd146101be578063313ce567146101ee575b600080fd5b61015a610462565b6040516101679190611bf0565b60405180910390f35b61018a60048036038101906101859190611cab565b6104f4565b6040516101979190611d06565b60405180910390f35b6101a8610517565b6040516101b59190611d30565b60405180910390f35b6101d860048036038101906101d39190611d4b565b610521565b6040516101e59190611d06565b60405180910390f35b6101f6610550565b6040516102039190611dba565b60405180910390f35b610214610555565b6040516102219190611dee565b60405180910390f35b610244600480360381019061023f9190611cab565b610564565b6040516102519190611d06565b60405180910390f35b61026261059b565b005b61027e60048036038101906102799190611cab565b610621565b005b6102886106ab565b6040516102959190611d06565b60405180910390f35b6102b860048036038101906102b39190611e09565b6106c2565b6040516102c59190611d30565b60405180910390f35b6102d661070a565b005b6102f260048036038101906102ed9190611e09565b610792565b6040516102ff9190611d30565b60405180910390f35b6103106107e2565b005b61031a610868565b6040516103279190611e45565b60405180910390f35b610338610892565b6040516103459190611bf0565b60405180910390f35b61036860048036038101906103639190611cab565b610924565b6040516103759190611d06565b60405180910390f35b61039860048036038101906103939190611cab565b61099b565b6040516103a59190611d06565b60405180910390f35b6103c860048036038101906103c39190611e09565b6109be565b005b6103e460048036038101906103df9190611eb8565b610aa1565b005b61040060048036038101906103fb9190611e09565b610be3565b60405161040d9190611d30565b60405180910390f35b610430600480360381019061042b9190611f5a565b610bfb565b60405161043d9190611d30565b60405180910390f35b610460600480360381019061045b9190611e09565b610c82565b005b60606003805461047190611fc9565b80601f016020809104026020016040519081016040528092919081815260200182805461049d90611fc9565b80156104ea5780601f106104bf576101008083540402835291602001916104ea565b820191906000526020600020905b8154815290600101906020018083116104cd57829003601f168201915b5050505050905090565b6000806104ff610d7f565b905061050c818585610d87565b600191505092915050565b6000600254905090565b60008061052c610d7f565b9050610539858285610f52565b610544858585610fde565b60019150509392505050565b600090565b600061055f61125f565b905090565b60008061056f610d7f565b90506105908185856105818589610bfb565b61058b919061202a565b610d87565b600191505092915050565b6105a3610d7f565b73ffffffffffffffffffffffffffffffffffffffff166105c1610868565b73ffffffffffffffffffffffffffffffffffffffff1614610617576040517f08c379a000000000000000000000000000000000000000000000000000000000815260040161060e906120cc565b60405180910390fd5b61061f611379565b565b610629610d7f565b73ffffffffffffffffffffffffffffffffffffffff16610647610868565b73ffffffffffffffffffffffffffffffffffffffff161461069d576040517f08c379a0000000000000000000000000000000000000000000000000000000008152600401610694906120cc565b60405180910390fd5b6106a7828261141b565b5050565b6000600560009054906101000a900460ff16905090565b60008060008373ffffffffffffffffffffffffffffffffffffffff1673ffffffffffffffffffffffffffffffffffffffff168152602001908152602001600020549050919050565b610712610d7f565b73ffffffffffffffffffffffffffffffffffffffff16610730610868565b73ffffffffffffffffffffffffffffffffffffffff1614610786576040517f08c379a000000000000000000000000000000000000000000000000000000000815260040161077d906120cc565b60405180910390fd5b610790600061157b565b565b60006107db600660008473ffffffffffffffffffffffffffffffffffffffff1673ffffffffffffffffffffffffffffffffffffffff168152602001908152602001600020611641565b9050919050565b6107ea610d7f565b73ffffffffffffffffffffffffffffffffffffffff16610808610868565b73ffffffffffffffffffffffffffffffffffffffff161461085e576040517f08c379a0000000000000000000000000000000000000000000000000000000008152600401610855906120cc565b60405180910390fd5b61086661164f565b565b6000600560019054906101000a900473ffffffffffffffffffffffffffffffffffffffff16905090565b6060600480546108a190611fc9565b80601f01602080910402602001604051908101604052809291908181526020018280546108cd90611fc9565b801561091a5780601f106108ef5761010080835404028352916020019161091a565b820191906000526020600020905b8154815290600101906020018083116108fd57829003601f168201915b5050505050905090565b60008061092f610d7f565b9050600061093d8286610bfb565b905083811015610982576040517f08c379a00000000000000000000000000000000000000000000000000000000081526004016109799061215e565b60405180910390fd5b61098f8286868403610d87565b60019250505092915050565b6000806109a6610d7f565b90506109b3818585610fde565b600191505092915050565b62015180600860008373ffffffffffffffffffffffffffffffffffffffff1673ffffffffffffffffffffffffffffffffffffffff16815260200190815260200160002054610a0c919061202a565b421015610a4e576040517f08c379a0000000000000000000000000000000000000000000000000000000008152600401610a45906121f0565b60405180910390fd5b42600860008373ffffffffffffffffffffffffffffffffffffffff1673ffffffffffffffffffffffffffffffffffffffff16815260200190815260200160002081905550610a9e30826064610fde565b50565b83421115610ae4576040517f08c379a0000000000000000000000000000000000000000000000000000000008152600401610adb9061225c565b60405180910390fd5b60007f6e71edae12b1b97f4d1f60370fef10105fa2faae0126114a169c64845d6126c9888888610b138c6116f2565b89604051602001610b299695949392919061227c565b6040516020818303038152906040528051906020012090506000610b4c82611750565b90506000610b5c8287878761176a565b90508973ffffffffffffffffffffffffffffffffffffffff168173ffffffffffffffffffffffffffffffffffffffff1614610bcc576040517f08c379a0000000000000000000000000000000000000000000000000000000008152600401610bc390612329565b60405180910390fd5b610bd78a8a8a610d87565b50505050505050505050565b60086020528060005260406000206000915090505481565b6000600160008473ffffffffffffffffffffffffffffffffffffffff1673ffffffffffffffffffffffffffffffffffffffff16815260200190815260200160002060008373ffffffffffffffffffffffffffffffffffffffff1673ffffffffffffffffffffffffffffffffffffffff16815260200190815260200160002054905092915050565b610c8a610d7f565b73ffffffffffffffffffffffffffffffffffffffff16610ca8610868565b73ffffffffffffffffffffffffffffffffffffffff1614610cfe576040517f08c379a0000000000000000000000000000000000000000000000000000000008152600401610cf5906120cc565b60405180910390fd5b600073ffffffffffffffffffffffffffffffffffffffff168173ffffffffffffffffffffffffffffffffffffffff161415610d6e576040517f08c379a0000000000000000000000000000000000000000000000000000000008152600401610d65906123bb565b60405180910390fd5b610d778161157b565b50565b505050565b600033905090565b600073ffffffffffffffffffffffffffffffffffffffff168373ffffffffffffffffffffffffffffffffffffffff161415610df7576040517f08c379a0000000000000000000000000000000000000000000000000000000008152600401610dee9061244d565b60405180910390fd5b600073ffffffffffffffffffffffffffffffffffffffff168273ffffffffffffffffffffffffffffffffffffffff161415610e67576040517f08c379a0000000000000000000000000000000000000000000000000000000008152600401610e5e906124df565b60405180910390fd5b80600160008573ffffffffffffffffffffffffffffffffffffffff1673ffffffffffffffffffffffffffffffffffffffff16815260200190815260200160002060008473ffffffffffffffffffffffffffffffffffffffff1673ffffffffffffffffffffffffffffffffffffffff168152602001908152602001600020819055508173ffffffffffffffffffffffffffffffffffffffff168373ffffffffffffffffffffffffffffffffffffffff167f8c5be1e5ebec7d5bd14f71427d1e84f3dd0314c0f7b2291e5b200ac8c7c3b92583604051610f459190611d30565b60405180910390a3505050565b6000610f5e8484610bfb565b90507fffffffffffffffffffffffffffffffffffffffffffffffffffffffffffffffff8114610fd85781811015610fca576040517f08c379a0000000000000000000000000000000000000000000000000000000008152600401610fc19061254b565b60405180910390fd5b610fd78484848403610d87565b5b50505050565b600073ffffffffffffffffffffffffffffffffffffffff168373ffffffffffffffffffffffffffffffffffffffff16141561104e576040517f08c379a0000000000000000000000000000000000000000000000000000000008152600401611045906125dd565b60405180910390fd5b600073ffffffffffffffffffffffffffffffffffffffff168273ffffffffffffffffffffffffffffffffffffffff1614156110be576040517f08c379a00000000000000000000000000000000000000000000000000000000081526004016110b59061266f565b60405180910390fd5b6110c9838383611795565b60008060008573ffffffffffffffffffffffffffffffffffffffff1673ffffffffffffffffffffffffffffffffffffffff1681526020019081526020016000205490508181101561114f576040517f08c379a000000000000000000000000000000000000000000000000000000000815260040161114690612701565b60405180910390fd5b8181036000808673ffffffffffffffffffffffffffffffffffffffff1673ffffffffffffffffffffffffffffffffffffffff16815260200190815260200160002081905550816000808573ffffffffffffffffffffffffffffffffffffffff1673ffffffffffffffffffffffffffffffffffffffff16815260200190815260200160002060008282546111e2919061202a565b925050819055508273ffffffffffffffffffffffffffffffffffffffff168473ffffffffffffffffffffffffffffffffffffffff167fddf252ad1be2c89b69c2b068fc378daa952ba7f163c4a11628f55a4df523b3ef846040516112469190611d30565b60405180910390a36112598484846117ed565b50505050565b60007f000000000000000000000000000000000000000000000000000000000000000073ffffffffffffffffffffffffffffffffffffffff163073ffffffffffffffffffffffffffffffffffffffff161480156112db57507f000000000000000000000000000000000000000000000000000000000000000046145b15611308577f00000000000000000000000000000000000000000000000000000000000000009050611376565b6113737f00000000000000000000000000000000000000000000000000000000000000007f00000000000000000000000000000000000000000000000000000000000000007f00000000000000000000000000000000000000000000000000000000000000006117f2565b90505b90565b6113816106ab565b6113c0576040517f08c379a00000000000000000000000000000000000000000000000000000000081526004016113b79061276d565b60405180910390fd5b6000600560006101000a81548160ff0219169083151502179055507f5db9ee0a495bf2e6ff9c91a7834c1ba4fdd244a5e8aa4e537bd38aeae4b073aa611404610d7f565b6040516114119190611e45565b60405180910390a1565b600073ffffffffffffffffffffffffffffffffffffffff168273ffffffffffffffffffffffffffffffffffffffff16141561148b576040517f08c379a0000000000000000000000000000000000000000000000000000000008152600401611482906127d9565b60405180910390fd5b61149760008383611795565b80600260008282546114a9919061202a565b92505081905550806000808473ffffffffffffffffffffffffffffffffffffffff1673ffffffffffffffffffffffffffffffffffffffff16815260200190815260200160002060008282546114fe919061202a565b925050819055508173ffffffffffffffffffffffffffffffffffffffff16600073ffffffffffffffffffffffffffffffffffffffff167fddf252ad1be2c89b69c2b068fc378daa952ba7f163c4a11628f55a4df523b3ef836040516115639190611d30565b60405180910390a3611577600083836117ed565b5050565b6000600560019054906101000a900473ffffffffffffffffffffffffffffffffffffffff16905081600560016101000a81548173ffffffffffffffffffffffffffffffffffffffff021916908373ffffffffffffffffffffffffffffffffffffffff1602179055508173ffffffffffffffffffffffffffffffffffffffff168173ffffffffffffffffffffffffffffffffffffffff167f8be0079c531659141344cd1fd0a4f28419497f9722a3daafe3b4186f6b6457e060405160405180910390a35050565b600081600001549050919050565b6116576106ab565b15611697576040517f08c379a000000000000000000000000000000000000000000000000000000000815260040161168e90612845565b60405180910390fd5b6001600560006101000a81548160ff0219169083151502179055507f62e78cea01bee320cd4e420270b5ea74000d11b0c9f74754ebdbfc544b05a2586116db610d7f565b6040516116e89190611e45565b60405180910390a1565b600080600660008473ffffffffffffffffffffffffffffffffffffffff1673ffffffffffffffffffffffffffffffffffffffff168152602001908152602001600020905061173f81611641565b915061174a8161182c565b50919050565b600061176361175d61125f565b83611842565b9050919050565b600080600061177b87878787611875565b9150915061178881611982565b8192505050949350505050565b61179d6106ab565b156117dd576040517f08c379a00000000000000000000000000000000000000000000000000000000081526004016117d490612845565b60405180910390fd5b6117e8838383610d7a565b505050565b505050565b6000838383463060405160200161180d959493929190612865565b6040516020818303038152906040528051906020012090509392505050565b6001816000016000828254019250508190555050565b60008282604051602001611857929190612930565b60405160208183030381529060405280519060200120905092915050565b6000807f7fffffffffffffffffffffffffffffff5d576e7357a4501ddfe92f46681b20a08360001c11156118b0576000600391509150611979565b601b8560ff16141580156118c85750601c8560ff1614155b156118da576000600491509150611979565b6000600187878787604051600081526020016040526040516118ff9493929190612967565b6020604051602081039080840390855afa158015611921573d6000803e3d6000fd5b505050602060405103519050600073ffffffffffffffffffffffffffffffffffffffff168173ffffffffffffffffffffffffffffffffffffffff16141561197057600060019250925050611979565b80600092509250505b94509492505050565b60006004811115611996576119956129ac565b5b8160048111156119a9576119a86129ac565b5b14156119b457611b54565b600160048111156119c8576119c76129ac565b5b8160048111156119db576119da6129ac565b5b1415611a1c576040517f08c379a0000000000000000000000000000000000000000000000000000000008152600401611a1390612a27565b60405180910390fd5b60026004811115611a3057611a2f6129ac565b5b816004811115611a4357611a426129ac565b5b1415611a84576040517f08c379a0000000000000000000000000000000000000000000000000000000008152600401611a7b90612a93565b60405180910390fd5b60036004811115611a9857611a976129ac565b5b816004811115611aab57611aaa6129ac565b5b1415611aec576040517f08c379a0000000000000000000000000000000000000000000000000000000008152600401611ae390612b25565b60405180910390fd5b600480811115611aff57611afe6129ac565b5b816004811115611b1257611b116129ac565b5b1415611b53576040517f08c379a0000000000000000000000000000000000000000000000000000000008152600401611b4a90612bb7565b60405180910390fd5b5b50565b600081519050919050565b600082825260208201905092915050565b60005b83811015611b91578082015181840152602081019050611b76565b83811115611ba0576000848401525b50505050565b6000601f19601f8301169050919050565b6000611bc282611b57565b611bcc8185611b62565b9350611bdc818560208601611b73565b611be581611ba6565b840191505092915050565b60006020820190508181036000830152611c0a8184611bb7565b905092915050565b600080fd5b600073ffffffffffffffffffffffffffffffffffffffff82169050919050565b6000611c4282611c17565b9050919050565b611c5281611c37565b8114611c5d57600080fd5b50565b600081359050611c6f81611c49565b92915050565b6000819050919050565b611c8881611c75565b8114611c9357600080fd5b50565b600081359050611ca581611c7f565b92915050565b60008060408385031215611cc257611cc1611c12565b5b6000611cd085828601611c60565b9250506020611ce185828601611c96565b9150509250929050565b60008115159050919050565b611d0081611ceb565b82525050565b6000602082019050611d1b6000830184611cf7565b92915050565b611d2a81611c75565b82525050565b6000602082019050611d456000830184611d21565b92915050565b600080600060608486031215611d6457611d63611c12565b5b6000611d7286828701611c60565b9350506020611d8386828701611c60565b9250506040611d9486828701611c96565b9150509250925092565b600060ff82169050919050565b611db481611d9e565b82525050565b6000602082019050611dcf6000830184611dab565b92915050565b6000819050919050565b611de881611dd5565b82525050565b6000602082019050611e036000830184611ddf565b92915050565b600060208284031215611e1f57611e1e611c12565b5b6000611e2d84828501611c60565b91505092915050565b611e3f81611c37565b82525050565b6000602082019050611e5a6000830184611e36565b92915050565b611e6981611d9e565b8114611e7457600080fd5b50565b600081359050611e8681611e60565b92915050565b611e9581611dd5565b8114611ea057600080fd5b50565b600081359050611eb281611e8c565b92915050565b600080600080600080600060e0888a031215611ed757611ed6611c12565b5b6000611ee58a828b01611c60565b9750506020611ef68a828b01611c60565b9650506040611f078a828b01611c96565b9550506060611f188a828b01611c96565b9450506080611f298a828b01611e77565b93505060a0611f3a8a828b01611ea3565b92505060c0611f4b8a828b01611ea3565b91505092959891949750929550565b60008060408385031215611f7157611f70611c12565b5b6000611f7f85828601611c60565b9250506020611f9085828601611c60565b9150509250929050565b7f4e487b7100000000000000000000000000000000000000000000000000000000600052602260045260246000fd5b60006002820490506001821680611fe157607f821691505b60208210811415611ff557611ff4611f9a565b5b50919050565b7f4e487b7100000000000000000000000000000000000000000000000000000000600052601160045260246000fd5b600061203582611c75565b915061204083611c75565b9250827fffffffffffffffffffffffffffffffffffffffffffffffffffffffffffffffff0382111561207557612074611ffb565b5b828201905092915050565b7f4f776e61626c653a2063616c6c6572206973206e6f7420746865206f776e6572600082015250565b60006120b6602083611b62565b91506120c182612080565b602082019050919050565b600060208201905081810360008301526120e5816120a9565b9050919050565b7f45524332303a2064656372656173656420616c6c6f77616e63652062656c6f7760008201527f207a65726f000000000000000000000000000000000000000000000000000000602082015250565b6000612148602583611b62565b9150612153826120ec565b604082019050919050565b600060208201905081810360008301526121778161213b565b9050919050565b7f4f6e6c79206f6e6520726571756573742063616e206265206d6164652070657260008201527f2064617900000000000000000000000000000000000000000000000000000000602082015250565b60006121da602483611b62565b91506121e58261217e565b604082019050919050565b60006020820190508181036000830152612209816121cd565b9050919050565b7f45524332305065726d69743a206578706972656420646561646c696e65000000600082015250565b6000612246601d83611b62565b915061225182612210565b602082019050919050565b6000602082019050818103600083015261227581612239565b9050919050565b600060c0820190506122916000830189611ddf565b61229e6020830188611e36565b6122ab6040830187611e36565b6122b86060830186611d21565b6122c56080830185611d21565b6122d260a0830184611d21565b979650505050505050565b7f45524332305065726d69743a20696e76616c6964207369676e61747572650000600082015250565b6000612313601e83611b62565b915061231e826122dd565b602082019050919050565b6000602082019050818103600083015261234281612306565b9050919050565b7f4f776e61626c653a206e6577206f776e657220697320746865207a65726f206160008201527f6464726573730000000000000000000000000000000000000000000000000000602082015250565b60006123a5602683611b62565b91506123b082612349565b604082019050919050565b600060208201905081810360008301526123d481612398565b9050919050565b7f45524332303a20617070726f76652066726f6d20746865207a65726f2061646460008201527f7265737300000000000000000000000000000000000000000000000000000000602082015250565b6000612437602483611b62565b9150612442826123db565b604082019050919050565b600060208201905081810360008301526124668161242a565b9050919050565b7f45524332303a20617070726f766520746f20746865207a65726f20616464726560008201527f7373000000000000000000000000000000000000000000000000000000000000602082015250565b60006124c9602283611b62565b91506124d48261246d565b604082019050919050565b600060208201905081810360008301526124f8816124bc565b9050919050565b7f45524332303a20696e73756666696369656e7420616c6c6f77616e6365000000600082015250565b6000612535601d83611b62565b9150612540826124ff565b602082019050919050565b6000602082019050818103600083015261256481612528565b9050919050565b7f45524332303a207472616e736665722066726f6d20746865207a65726f20616460008201527f6472657373000000000000000000000000000000000000000000000000000000602082015250565b60006125c7602583611b62565b91506125d28261256b565b604082019050919050565b600060208201905081810360008301526125f6816125ba565b9050919050565b7f45524332303a207472616e7366657220746f20746865207a65726f206164647260008201527f6573730000000000000000000000000000000000000000000000000000000000602082015250565b6000612659602383611b62565b9150612664826125fd565b604082019050919050565b600060208201905081810360008301526126888161264c565b9050919050565b7f45524332303a207472616e7366657220616d6f756e742065786365656473206260008201527f616c616e63650000000000000000000000000000000000000000000000000000602082015250565b60006126eb602683611b62565b91506126f68261268f565b604082019050919050565b6000602082019050818103600083015261271a816126de565b9050919050565b7f5061757361626c653a206e6f7420706175736564000000000000000000000000600082015250565b6000612757601483611b62565b915061276282612721565b602082019050919050565b600060208201905081810360008301526127868161274a565b9050919050565b7f45524332303a206d696e7420746f20746865207a65726f206164647265737300600082015250565b60006127c3601f83611b62565b91506127ce8261278d565b602082019050919050565b600060208201905081810360008301526127f2816127b6565b9050919050565b7f5061757361626c653a2070617573656400000000000000000000000000000000600082015250565b600061282f601083611b62565b915061283a826127f9565b602082019050919050565b6000602082019050818103600083015261285e81612822565b9050919050565b600060a08201905061287a6000830188611ddf565b6128876020830187611ddf565b6128946040830186611ddf565b6128a16060830185611d21565b6128ae6080830184611e36565b9695505050505050565b600081905092915050565b7f1901000000000000000000000000000000000000000000000000000000000000600082015250565b60006128f96002836128b8565b9150612904826128c3565b600282019050919050565b6000819050919050565b61292a61292582611dd5565b61290f565b82525050565b600061293b826128ec565b91506129478285612919565b6020820191506129578284612919565b6020820191508190509392505050565b600060808201905061297c6000830187611ddf565b6129896020830186611dab565b6129966040830185611ddf565b6129a36060830184611ddf565b95945050505050565b7f4e487b7100000000000000000000000000000000000000000000000000000000600052602160045260246000fd5b7f45434453413a20696e76616c6964207369676e61747572650000000000000000600082015250565b6000612a11601883611b62565b9150612a1c826129db565b602082019050919050565b60006020820190508181036000830152612a4081612a04565b9050919050565b7f45434453413a20696e76616c6964207369676e6174757265206c656e67746800600082015250565b6000612a7d601f83611b62565b9150612a8882612a47565b602082019050919050565b60006020820190508181036000830152612aac81612a70565b9050919050565b7f45434453413a20696e76616c6964207369676e6174757265202773272076616c60008201527f7565000000000000000000000000000000000000000000000000000000000000602082015250565b6000612b0f602283611b62565b9150612b1a82612ab3565b604082019050919050565b60006020820190508181036000830152612b3e81612b02565b9050919050565b7f45434453413a20696e76616c6964207369676e6174757265202776272076616c60008201527f7565000000000000000000000000000000000000000000000000000000000000602082015250565b6000612ba1602283611b62565b9150612bac82612b45565b604082019050919050565b60006020820190508181036000830152612bd081612b94565b905091905056fea2646970667358221220b5a9464fd95dac49d88d70fa6b29d220718fd625f66b8e6fb98d17f14539c7d864736f6c63430008090033",
	"immutableReferences": {
		"3624": [
			{
				"length": 32,
				"start": 4834
			}
		],
		"3626": [
			{
				"length": 32,
				"start": 4793
			}
		],
		"3628": [
			{
				"length": 32,
				"start": 4707
			}
		],
		"3630": [
			{
				"length": 32,
				"start": 4910
			}
		],
		"3632": [
			{
				"length": 32,
				"start": 4943
			}
		],
		"3634": [
			{
				"length": 32,
				"start": 4877
			}
		]
	},
	"source": "// SPDX-License-Identifier: MIT\npragma solidity ^0.8.9;\n\nimport \"@openzeppelin/contracts/token/ERC20/ERC20.sol\";\nimport \"@openzeppelin/contracts/security/Pausable.sol\";\nimport \"@openzeppelin/contracts/access/Ownable.sol\";\nimport \"@openzeppelin/contracts/token/ERC20/extensions/draft-ERC20Permit.sol\";\n\ncontract RocketToken is ERC20, Pausable, Ownable, ERC20Permit {\n\n    mapping(address => uint) public lastFaucetRequest;\n\n    constructor() ERC20(\"RocketToken\", \"ROCKET\") ERC20Permit(\"RocketToken\") {\n        _mint(msg.sender, 1000);\n        _mint(address(this), 1000000000);\n    }\n\n    function pause() public onlyOwner {\n        _pause();\n    }\n\n    function unpause() public onlyOwner {\n        _unpause();\n    }\n\n    function mint(address to, uint256 amount) public onlyOwner {\n        _mint(to, amount);\n    }\n\n    function faucet(address requester) public {\n        require(block.timestamp >= lastFaucetRequest[requester] + 86400, \"Only one request can be made per day\");\n        lastFaucetRequest[requester] = block.timestamp;\n        _transfer(address(this), requester, 100);\n    }\n\n    function decimals() public view virtual override returns (uint8) {\n        return 0;\n    }\n\n    function _beforeTokenTransfer(address from, address to, uint256 amount)\n        internal\n        whenNotPaused\n        override\n    {\n        super._beforeTokenTransfer(from, to, amount);\n    }\n}",
	"sourcePath": "/home/mathieuhoude/source/MathieuHoude/RocketElevatorsExpressAPI/contracts/RocketToken.sol",
	"compiler": {
		"name": "solc",
		"version": "0.8.9+commit.e5eed63a.Emscripten.clang"
	},
	"schemaVersion": "3.4.7",
	"updatedAt": "2022-05-05T15:26:07.728Z",
	"networkType": "ethereum",
	"devdoc": {
		"kind": "dev",
		"methods": {
			"DOMAIN_SEPARATOR()": {
				"details": "See {IERC20Permit-DOMAIN_SEPARATOR}."
			},
			"allowance(address,address)": {
				"details": "See {IERC20-allowance}."
			},
			"approve(address,uint256)": {
				"details": "See {IERC20-approve}. NOTE: If `amount` is the maximum `uint256`, the allowance is not updated on `transferFrom`. This is semantically equivalent to an infinite approval. Requirements: - `spender` cannot be the zero address."
			},
			"balanceOf(address)": {
				"details": "See {IERC20-balanceOf}."
			},
			"decimals()": {
				"details": "Returns the number of decimals used to get its user representation. For example, if `decimals` equals `2`, a balance of `505` tokens should be displayed to a user as `5.05` (`505 / 10 ** 2`). Tokens usually opt for a value of 18, imitating the relationship between Ether and Wei. This is the value {ERC20} uses, unless this function is overridden; NOTE: This information is only used for _display_ purposes: it in no way affects any of the arithmetic of the contract, including {IERC20-balanceOf} and {IERC20-transfer}."
			},
			"decreaseAllowance(address,uint256)": {
				"details": "Atomically decreases the allowance granted to `spender` by the caller. This is an alternative to {approve} that can be used as a mitigation for problems described in {IERC20-approve}. Emits an {Approval} event indicating the updated allowance. Requirements: - `spender` cannot be the zero address. - `spender` must have allowance for the caller of at least `subtractedValue`."
			},
			"increaseAllowance(address,uint256)": {
				"details": "Atomically increases the allowance granted to `spender` by the caller. This is an alternative to {approve} that can be used as a mitigation for problems described in {IERC20-approve}. Emits an {Approval} event indicating the updated allowance. Requirements: - `spender` cannot be the zero address."
			},
			"name()": {
				"details": "Returns the name of the token."
			},
			"nonces(address)": {
				"details": "See {IERC20Permit-nonces}."
			},
			"owner()": {
				"details": "Returns the address of the current owner."
			},
			"paused()": {
				"details": "Returns true if the contract is paused, and false otherwise."
			},
			"permit(address,address,uint256,uint256,uint8,bytes32,bytes32)": {
				"details": "See {IERC20Permit-permit}."
			},
			"renounceOwnership()": {
				"details": "Leaves the contract without owner. It will not be possible to call `onlyOwner` functions anymore. Can only be called by the current owner. NOTE: Renouncing ownership will leave the contract without an owner, thereby removing any functionality that is only available to the owner."
			},
			"symbol()": {
				"details": "Returns the symbol of the token, usually a shorter version of the name."
			},
			"totalSupply()": {
				"details": "See {IERC20-totalSupply}."
			},
			"transfer(address,uint256)": {
				"details": "See {IERC20-transfer}. Requirements: - `to` cannot be the zero address. - the caller must have a balance of at least `amount`."
			},
			"transferFrom(address,address,uint256)": {
				"details": "See {IERC20-transferFrom}. Emits an {Approval} event indicating the updated allowance. This is not required by the EIP. See the note at the beginning of {ERC20}. NOTE: Does not update the allowance if the current allowance is the maximum `uint256`. Requirements: - `from` and `to` cannot be the zero address. - `from` must have a balance of at least `amount`. - the caller must have allowance for ``from``'s tokens of at least `amount`."
			},
			"transferOwnership(address)": {
				"details": "Transfers ownership of the contract to a new account (`newOwner`). Can only be called by the current owner."
			}
		},
		"version": 1
	},
	"userdoc": {
		"kind": "user",
		"methods": {},
		"version": 1
	}
}